{"abi":[{"type":"constructor","inputs":[],"stateMutability":"payable"},{"type":"receive","stateMutability":"payable"},{"type":"function","name":"DEFAULT_ADMIN_ROLE","inputs":[],"outputs":[{"name":"","type":"bytes32","internalType":"bytes32"}],"stateMutability":"view"},{"type":"function","name":"EXECUTOR_ROLE","inputs":[],"outputs":[{"name":"","type":"bytes32","internalType":"bytes32"}],"stateMutability":"view"},{"type":"function","name":"OWNER_ROLE","inputs":[],"outputs":[{"name":"","type":"bytes32","internalType":"bytes32"}],"stateMutability":"view"},{"type":"function","name":"croDefiSwapCall","inputs":[{"name":"sender","type":"address","internalType":"address"},{"name":"amount0","type":"uint256","internalType":"uint256"},{"name":"amount1","type":"uint256","internalType":"uint256"},{"name":"data","type":"bytes","internalType":"bytes"}],"outputs":[],"stateMutability":"nonpayable"},{"type":"function","name":"executeBundle","inputs":[{"name":"target","type":"address","internalType":"address"},{"name":"amountToCoinbase","type":"uint256","internalType":"uint256"},{"name":"outputToken","type":"address","internalType":"address"},{"name":"data","type":"bytes","internalType":"bytes"}],"outputs":[],"stateMutability":"nonpayable"},{"type":"function","name":"getRoleAdmin","inputs":[{"name":"role","type":"bytes32","internalType":"bytes32"}],"outputs":[{"name":"","type":"bytes32","internalType":"bytes32"}],"stateMutability":"view"},{"type":"function","name":"getRoleMember","inputs":[{"name":"role","type":"bytes32","internalType":"bytes32"},{"name":"index","type":"uint256","internalType":"uint256"}],"outputs":[{"name":"","type":"address","internalType":"address"}],"stateMutability":"view"},{"type":"function","name":"getRoleMemberCount","inputs":[{"name":"role","type":"bytes32","internalType":"bytes32"}],"outputs":[{"name":"","type":"uint256","internalType":"uint256"}],"stateMutability":"view"},{"type":"function","name":"grantRole","inputs":[{"name":"role","type":"bytes32","internalType":"bytes32"},{"name":"account","type":"address","internalType":"address"}],"outputs":[],"stateMutability":"nonpayable"},{"type":"function","name":"hasRole","inputs":[{"name":"role","type":"bytes32","internalType":"bytes32"},{"name":"account","type":"address","internalType":"address"}],"outputs":[{"name":"","type":"bool","internalType":"bool"}],"stateMutability":"view"},{"type":"function","name":"pancakeCall","inputs":[{"name":"sender","type":"address","internalType":"address"},{"name":"amount0","type":"uint256","internalType":"uint256"},{"name":"amount1","type":"uint256","internalType":"uint256"},{"name":"data","type":"bytes","internalType":"bytes"}],"outputs":[],"stateMutability":"nonpayable"},{"type":"function","name":"pancakeV3SwapCallback","inputs":[{"name":"amount0Delta","type":"int256","internalType":"int256"},{"name":"amount1Delta","type":"int256","internalType":"int256"},{"name":"data","type":"bytes","internalType":"bytes"}],"outputs":[],"stateMutability":"nonpayable"},{"type":"function","name":"renounceRole","inputs":[{"name":"role","type":"bytes32","internalType":"bytes32"},{"name":"callerConfirmation","type":"address","internalType":"address"}],"outputs":[],"stateMutability":"nonpayable"},{"type":"function","name":"revokeRole","inputs":[{"name":"role","type":"bytes32","internalType":"bytes32"},{"name":"account","type":"address","internalType":"address"}],"outputs":[],"stateMutability":"nonpayable"},{"type":"function","name":"supportsInterface","inputs":[{"name":"interfaceId","type":"bytes4","internalType":"bytes4"}],"outputs":[{"name":"","type":"bool","internalType":"bool"}],"stateMutability":"view"},{"type":"function","name":"uniswapV2Call","inputs":[{"name":"sender","type":"address","internalType":"address"},{"name":"amount0","type":"uint256","internalType":"uint256"},{"name":"amount1","type":"uint256","internalType":"uint256"},{"name":"data","type":"bytes","internalType":"bytes"}],"outputs":[],"stateMutability":"nonpayable"},{"type":"function","name":"uniswapV3SwapCallback","inputs":[{"name":"amount0Delta","type":"int256","internalType":"int256"},{"name":"amount1Delta","type":"int256","internalType":"int256"},{"name":"data","type":"bytes","internalType":"bytes"}],"outputs":[],"stateMutability":"nonpayable"},{"type":"function","name":"withdrawERC20Tokens","inputs":[{"name":"tokenAddress","type":"address","internalType":"address"}],"outputs":[],"stateMutability":"nonpayable"},{"type":"function","name":"withdrawETH","inputs":[],"outputs":[],"stateMutability":"nonpayable"},{"type":"event","name":"RoleAdminChanged","inputs":[{"name":"role","type":"bytes32","indexed":true,"internalType":"bytes32"},{"name":"previousAdminRole","type":"bytes32","indexed":true,"internalType":"bytes32"},{"name":"newAdminRole","type":"bytes32","indexed":true,"internalType":"bytes32"}],"anonymous":false},{"type":"event","name":"RoleGranted","inputs":[{"name":"role","type":"bytes32","indexed":true,"internalType":"bytes32"},{"name":"account","type":"address","indexed":true,"internalType":"address"},{"name":"sender","type":"address","indexed":true,"internalType":"address"}],"anonymous":false},{"type":"event","name":"RoleRevoked","inputs":[{"name":"role","type":"bytes32","indexed":true,"internalType":"bytes32"},{"name":"account","type":"address","indexed":true,"internalType":"address"},{"name":"sender","type":"address","indexed":true,"internalType":"address"}],"anonymous":false},{"type":"error","name":"AccessControlBadConfirmation","inputs":[]},{"type":"error","name":"AccessControlUnauthorizedAccount","inputs":[{"name":"account","type":"address","internalType":"address"},{"name":"neededRole","type":"bytes32","internalType":"bytes32"}]},{"type":"error","name":"AddressEmptyCode","inputs":[{"name":"target","type":"address","internalType":"address"}]},{"type":"error","name":"AddressInsufficientBalance","inputs":[{"name":"account","type":"address","internalType":"address"}]},{"type":"error","name":"FailedInnerCall","inputs":[]},{"type":"error","name":"SafeERC20FailedOperation","inputs":[{"name":"token","type":"address","internalType":"address"}]}],"bytecode":{"object":"0x608060405261000f60003361006b565b5061003a7fd8aa0f3194971a2a116679f7c2090f6939c8d4e01a2a8d7e41d55e5351469e633361006b565b506100657fb19546dff01e856fb3f010c267a7b1c60363cf8a4664e21cc89c26224620214e3361006b565b506101a4565b60008061007884846100a3565b9050801561009a576000848152600160205260409020610098908461014d565b505b90505b92915050565b6000828152602081815260408083206001600160a01b038516845290915281205460ff16610145576000838152602081815260408083206001600160a01b03861684529091529020805460ff191660011790556100fd3390565b6001600160a01b0316826001600160a01b0316847f2f8788117e7eff1d82e926ec794901d17c78024a50270940304540a733656f0d60405160405180910390a450600161009d565b50600061009d565b600061009a836001600160a01b03841660008181526001830160205260408120546101455750815460018181018455600084815260208082209093018490558454848252828601909352604090209190915561009d565b611805806101b36000396000f3fe6080604052600436106101185760003560e01c80636c813d29116100a0578063ca15c87311610064578063ca15c873146102fa578063d547741f1461031a578063e086e5ec1461033a578063e58378bb1461034f578063fa461e33146101bd57600080fd5b80636c813d291461019b578063848008121461019b5780639010d07c1461028d57806391d14854146102c5578063a217fddf146102e557600080fd5b8063248a9ca3116100e7578063248a9ca3146101dd5780632f2ff15d1461020d578063325665861461022d57806336568abe1461024d5780634ff7ff321461026d57600080fd5b806301ffc9a71461012457806307bd02651461015957806310d1e85c1461019b57806323a69e75146101bd57600080fd5b3661011f57005b600080fd5b34801561013057600080fd5b5061014461013f36600461134a565b610371565b60405190151581526020015b60405180910390f35b34801561016557600080fd5b5061018d7fd8aa0f3194971a2a116679f7c2090f6939c8d4e01a2a8d7e41d55e5351469e6381565b604051908152602001610150565b3480156101a757600080fd5b506101bb6101b63660046113d2565b61039c565b005b3480156101c957600080fd5b506101bb6101d836600461143c565b6103b0565b3480156101e957600080fd5b5061018d6101f836600461148f565b60009081526020819052604090206001015490565b34801561021957600080fd5b506101bb6102283660046114a8565b6103c2565b34801561023957600080fd5b506101bb6102483660046114d8565b6103e7565b34801561025957600080fd5b506101bb6102683660046114a8565b6106ab565b34801561027957600080fd5b506101bb61028836600461152e565b6106e3565b34801561029957600080fd5b506102ad6102a836600461154b565b61077c565b6040516001600160a01b039091168152602001610150565b3480156102d157600080fd5b506101446102e03660046114a8565b61079b565b3480156102f157600080fd5b5061018d600081565b34801561030657600080fd5b5061018d61031536600461148f565b6107c4565b34801561032657600080fd5b506101bb6103353660046114a8565b6107db565b34801561034657600080fd5b506101bb610800565b34801561035b57600080fd5b5061018d6000805160206117b083398151915281565b60006001600160e01b03198216635a05180f60e01b1480610396575061039682610844565b92915050565b6103a98585858585610879565b5050505050565b6103bc84848484610b49565b50505050565b6000828152602081905260409020600101546103dd81610e1c565b6103bc8383610e29565b7fd8aa0f3194971a2a116679f7c2090f6939c8d4e01a2a8d7e41d55e5351469e6361041181610e1c565b600080876001600160a01b0316858560405161042e92919061156d565b6000604051808303816000865af19150503d806000811461046b576040519150601f19603f3d011682016040523d82523d6000602084013e610470565b606091505b509150915081819061049e5760405162461bcd60e51b815260040161049591906115a1565b60405180910390fd5b506040516370a0823160e01b8152306004820152479060009073c02aaa39b223fe8d0a0e5c4f27ead9083c756cc2906370a0823190602401602060405180830381865afa1580156104f3573d6000803e3d6000fd5b505050506040513d601f19601f8201168201806040525081019061051791906115d4565b9050886105248284611603565b10156105585760405162461bcd60e51b815260206004820152600360248201526224a82360e91b6044820152606401610495565b888210156105d55773c02aaa39b223fe8d0a0e5c4f27ead9083c756cc2632e1a7d4d610584848c611616565b6040518263ffffffff1660e01b81526004016105a291815260200190565b600060405180830381600087803b1580156105bc57600080fd5b505af11580156105d0573d6000803e3d6000fd5b505050505b881561060a5760405141908a156108fc02908b906000818181858888f19350505050158015610608573d6000803e3d6000fd5b505b61069f6106266000805160206117b0833981519152600061077c565b6040516370a0823160e01b81523060048201526001600160a01b038b16906370a0823190602401602060405180830381865afa15801561066a573d6000803e3d6000fd5b505050506040513d601f19601f8201168201806040525081019061068e91906115d4565b6001600160a01b038b169190610e5e565b50505050505050505050565b6001600160a01b03811633146106d45760405163334bd91960e11b815260040160405180910390fd5b6106de8282610eb0565b505050565b6000805160206117b08339815191526106fb81610e1c565b610778336040516370a0823160e01b81523060048201526001600160a01b038516906370a0823190602401602060405180830381865afa158015610743573d6000803e3d6000fd5b505050506040513d601f19601f8201168201806040525081019061076791906115d4565b6001600160a01b0385169190610e5e565b5050565b60008281526001602052604081206107949083610edd565b9392505050565b6000918252602082815260408084206001600160a01b0393909316845291905290205460ff1690565b600081815260016020526040812061039690610ee9565b6000828152602081905260409020600101546107f681610e1c565b6103bc8383610eb0565b6000805160206117b083398151915261081881610e1c565b60405133904780156108fc02916000818181858888f19350505050158015610778573d6000803e3d6000fd5b60006001600160e01b03198216637965db0b60e01b148061039657506301ffc9a760e01b6001600160e01b0319831614610396565b600080806108898486018661163f565b919450925090506001600160a01b0382161561092557600080836001600160a01b0316836040516108ba919061170c565b6000604051808303816000865af19150503d80600081146108f7576040519150601f19603f3d011682016040523d82523d6000602084013e6108fc565b606091505b50915091508181906109215760405162461bcd60e51b815260040161049591906115a1565b5050505b8615610a34576000336001600160a01b031663d21220a76040518163ffffffff1660e01b8152600401602060405180830381865afa15801561096b573d6000803e3d6000fd5b505050506040513d601f19601f8201168201806040525081019061098f9190611728565b6040516370a0823160e01b815230600482015290915084906001600160a01b038316906370a0823190602401602060405180830381865afa1580156109d8573d6000803e3d6000fd5b505050506040513d601f19601f820116820180604052508101906109fc91906115d4565b1015610a1a5760405162461bcd60e51b815260040161049590611745565b610a2e6001600160a01b0382163386610e5e565b50610b3f565b8515610b3f576000336001600160a01b0316630dfe16816040518163ffffffff1660e01b8152600401602060405180830381865afa158015610a7a573d6000803e3d6000fd5b505050506040513d601f19601f82011682018060405250810190610a9e9190611728565b6040516370a0823160e01b815230600482015290915084906001600160a01b038316906370a0823190602401602060405180830381865afa158015610ae7573d6000803e3d6000fd5b505050506040513d601f19601f82011682018060405250810190610b0b91906115d4565b1015610b295760405162461bcd60e51b815260040161049590611745565b610b3d6001600160a01b0382163386610e5e565b505b5050505050505050565b60008080610b598486018661163f565b919450925090506001600160a01b03821615610bf557600080836001600160a01b031683604051610b8a919061170c565b6000604051808303816000865af19150503d8060008114610bc7576040519150601f19603f3d011682016040523d82523d6000602084013e610bcc565b606091505b5091509150818190610bf15760405162461bcd60e51b815260040161049591906115a1565b5050505b6000871315610d07576000336001600160a01b0316630dfe16816040518163ffffffff1660e01b8152600401602060405180830381865afa158015610c3e573d6000803e3d6000fd5b505050506040513d601f19601f82011682018060405250810190610c629190611728565b6040516370a0823160e01b815230600482015290915088906001600160a01b038316906370a0823190602401602060405180830381865afa158015610cab573d6000803e3d6000fd5b505050506040513d601f19601f82011682018060405250810190610ccf91906115d4565b1015610ced5760405162461bcd60e51b815260040161049590611745565b610d016001600160a01b038216338a610e5e565b50610e13565b6000861315610e13576000336001600160a01b031663d21220a76040518163ffffffff1660e01b8152600401602060405180830381865afa158015610d50573d6000803e3d6000fd5b505050506040513d601f19601f82011682018060405250810190610d749190611728565b6040516370a0823160e01b815230600482015290915087906001600160a01b038316906370a0823190602401602060405180830381865afa158015610dbd573d6000803e3d6000fd5b505050506040513d601f19601f82011682018060405250810190610de191906115d4565b1015610dff5760405162461bcd60e51b815260040161049590611745565b610b3f6001600160a01b0382163389610e5e565b50505050505050565b610e268133610ef3565b50565b600080610e368484610f2c565b90508015610794576000848152600160205260409020610e569084610fbe565b509392505050565b604080516001600160a01b038416602482015260448082018490528251808303909101815260649091019091526020810180516001600160e01b031663a9059cbb60e01b1790526106de908490610fd3565b600080610ebd8484611036565b90508015610794576000848152600160205260409020610e5690846110a1565b600061079483836110b6565b6000610396825490565b610efd828261079b565b6107785760405163e2517d3f60e01b81526001600160a01b038216600482015260248101839052604401610495565b6000610f38838361079b565b610fb6576000838152602081815260408083206001600160a01b03861684529091529020805460ff19166001179055610f6e3390565b6001600160a01b0316826001600160a01b0316847f2f8788117e7eff1d82e926ec794901d17c78024a50270940304540a733656f0d60405160405180910390a4506001610396565b506000610396565b6000610794836001600160a01b0384166110e0565b6000610fe86001600160a01b03841683611127565b9050805160001415801561100d57508080602001905181019061100b9190611761565b155b156106de57604051635274afe760e01b81526001600160a01b0384166004820152602401610495565b6000611042838361079b565b15610fb6576000838152602081815260408083206001600160a01b0386168085529252808320805460ff1916905551339286917ff6391f5c32d9c69d2a47ea670b442974b53935d1edc7fd64eb21e047a839171b9190a4506001610396565b6000610794836001600160a01b038416611135565b60008260000182815481106110cd576110cd611783565b9060005260206000200154905092915050565b6000818152600183016020526040812054610fb657508154600181810184556000848152602080822090930184905584548482528286019093526040902091909155610396565b606061079483836000611228565b6000818152600183016020526040812054801561121e576000611159600183611616565b855490915060009061116d90600190611616565b90508082146111d257600086600001828154811061118d5761118d611783565b90600052602060002001549050808760000184815481106111b0576111b0611783565b6000918252602080832090910192909255918252600188019052604090208390555b85548690806111e3576111e3611799565b600190038181906000526020600020016000905590558560010160008681526020019081526020016000206000905560019350505050610396565b6000915050610396565b60608147101561124d5760405163cd78605960e01b8152306004820152602401610495565b600080856001600160a01b03168486604051611269919061170c565b60006040518083038185875af1925050503d80600081146112a6576040519150601f19603f3d011682016040523d82523d6000602084013e6112ab565b606091505b50915091506112bb8683836112c5565b9695505050505050565b6060826112da576112d582611321565b610794565b81511580156112f157506001600160a01b0384163b155b1561131a57604051639996b31560e01b81526001600160a01b0385166004820152602401610495565b5080610794565b8051156113315780518082602001fd5b604051630a12f52160e11b815260040160405180910390fd5b60006020828403121561135c57600080fd5b81356001600160e01b03198116811461079457600080fd5b6001600160a01b0381168114610e2657600080fd5b60008083601f84011261139b57600080fd5b50813567ffffffffffffffff8111156113b357600080fd5b6020830191508360208285010111156113cb57600080fd5b9250929050565b6000806000806000608086880312156113ea57600080fd5b85356113f581611374565b94506020860135935060408601359250606086013567ffffffffffffffff81111561141f57600080fd5b61142b88828901611389565b969995985093965092949392505050565b6000806000806060858703121561145257600080fd5b8435935060208501359250604085013567ffffffffffffffff81111561147757600080fd5b61148387828801611389565b95989497509550505050565b6000602082840312156114a157600080fd5b5035919050565b600080604083850312156114bb57600080fd5b8235915060208301356114cd81611374565b809150509250929050565b6000806000806000608086880312156114f057600080fd5b85356114fb81611374565b945060208601359350604086013561151281611374565b9250606086013567ffffffffffffffff81111561141f57600080fd5b60006020828403121561154057600080fd5b813561079481611374565b6000806040838503121561155e57600080fd5b50508035926020909101359150565b8183823760009101908152919050565b60005b83811015611598578181015183820152602001611580565b50506000910152565b60208152600082518060208401526115c081604085016020870161157d565b601f01601f19169190910160400192915050565b6000602082840312156115e657600080fd5b5051919050565b634e487b7160e01b600052601160045260246000fd5b80820180821115610396576103966115ed565b81810381811115610396576103966115ed565b634e487b7160e01b600052604160045260246000fd5b60008060006060848603121561165457600080fd5b83359250602084013561166681611374565b9150604084013567ffffffffffffffff8082111561168357600080fd5b818601915086601f83011261169757600080fd5b8135818111156116a9576116a9611629565b604051601f8201601f19908116603f011681019083821181831017156116d1576116d1611629565b816040528281528960208487010111156116ea57600080fd5b8260208601602083013760006020848301015280955050505050509250925092565b6000825161171e81846020870161157d565b9190910192915050565b60006020828403121561173a57600080fd5b815161079481611374565b602080825260029082015261494760f01b604082015260600190565b60006020828403121561177357600080fd5b8151801515811461079457600080fd5b634e487b7160e01b600052603260045260246000fd5b634e487b7160e01b600052603160045260246000fdfeb19546dff01e856fb3f010c267a7b1c60363cf8a4664e21cc89c26224620214ea2646970667358221220713c64de21135d7c40788a59e8a50ae05fe7987d4273fc409183f81b25e0282d64736f6c63430008190033","linkReferences":{}},"methodIdentifiers":{"DEFAULT_ADMIN_ROLE()":"a217fddf","EXECUTOR_ROLE()":"07bd0265","OWNER_ROLE()":"e58378bb","croDefiSwapCall(address,uint256,uint256,bytes)":"6c813d29","executeBundle(address,uint256,address,bytes)":"32566586","getRoleAdmin(bytes32)":"248a9ca3","getRoleMember(bytes32,uint256)":"9010d07c","getRoleMemberCount(bytes32)":"ca15c873","grantRole(bytes32,address)":"2f2ff15d","hasRole(bytes32,address)":"91d14854","pancakeCall(address,uint256,uint256,bytes)":"84800812","pancakeV3SwapCallback(int256,int256,bytes)":"23a69e75","renounceRole(bytes32,address)":"36568abe","revokeRole(bytes32,address)":"d547741f","supportsInterface(bytes4)":"01ffc9a7","uniswapV2Call(address,uint256,uint256,bytes)":"10d1e85c","uniswapV3SwapCallback(int256,int256,bytes)":"fa461e33","withdrawERC20Tokens(address)":"4ff7ff32","withdrawETH()":"e086e5ec"},"id":26}